{
  "contractName": "syntheticStocks",
  "abi": [
    {
      "constant": true,
      "inputs": [],
      "name": "currentPrice",
      "outputs": [
        {
          "name": "",
          "type": "uint256"
        }
      ],
      "payable": false,
      "stateMutability": "view",
      "type": "function"
    },
    {
      "inputs": [],
      "payable": false,
      "stateMutability": "nonpayable",
      "type": "constructor"
    },
    {
      "constant": false,
      "inputs": [
        {
          "name": "_ticker",
          "type": "string"
        }
      ],
      "name": "getPrice",
      "outputs": [],
      "payable": false,
      "stateMutability": "nonpayable",
      "type": "function"
    },
    {
      "constant": false,
      "inputs": [
        {
          "name": "_requestId",
          "type": "bytes32"
        },
        {
          "name": "_price",
          "type": "uint256"
        }
      ],
      "name": "fulfillEthereumPrice",
      "outputs": [],
      "payable": false,
      "stateMutability": "nonpayable",
      "type": "function"
    },
    {
      "constant": false,
      "inputs": [
        {
          "name": "stock",
          "type": "bytes32"
        },
        {
          "name": "collateralType",
          "type": "uint256"
        },
        {
          "name": "collateralAmount",
          "type": "uint256"
        },
        {
          "name": "endBlock",
          "type": "uint256"
        }
      ],
      "name": "newOffer",
      "outputs": [],
      "payable": false,
      "stateMutability": "nonpayable",
      "type": "function"
    },
    {
      "constant": true,
      "inputs": [],
      "name": "getOpenOffers",
      "outputs": [
        {
          "name": "",
          "type": "bytes32[]"
        },
        {
          "name": "",
          "type": "uint256[]"
        },
        {
          "name": "",
          "type": "uint256[]"
        }
      ],
      "payable": false,
      "stateMutability": "view",
      "type": "function"
    },
    {
      "constant": false,
      "inputs": [
        {
          "name": "index",
          "type": "uint256"
        }
      ],
      "name": "removeOffer",
      "outputs": [],
      "payable": false,
      "stateMutability": "nonpayable",
      "type": "function"
    },
    {
      "constant": false,
      "inputs": [
        {
          "name": "index",
          "type": "uint256"
        },
        {
          "name": "collateralType",
          "type": "uint256"
        },
        {
          "name": "collateralAmount",
          "type": "uint256"
        }
      ],
      "name": "newAgreement",
      "outputs": [
        {
          "name": "succuss",
          "type": "bool"
        }
      ],
      "payable": true,
      "stateMutability": "payable",
      "type": "function"
    },
    {
      "constant": false,
      "inputs": [
        {
          "name": "index",
          "type": "uint256"
        }
      ],
      "name": "rejectAgreement",
      "outputs": [],
      "payable": false,
      "stateMutability": "nonpayable",
      "type": "function"
    },
    {
      "constant": false,
      "inputs": [
        {
          "name": "index",
          "type": "uint256"
        }
      ],
      "name": "confirmAgreement",
      "outputs": [],
      "payable": true,
      "stateMutability": "payable",
      "type": "function"
    },
    {
      "constant": false,
      "inputs": [
        {
          "name": "index",
          "type": "uint256"
        }
      ],
      "name": "removeTempAgreement",
      "outputs": [],
      "payable": false,
      "stateMutability": "nonpayable",
      "type": "function"
    }
  ],
  "bytecode": "0x608060405234801561001057600080fd5b506000808190555060006008819055506000600481905550611e2e806100376000396000f3006080604052600436106100a4576000357c0100000000000000000000000000000000000000000000000000000000900463ffffffff168063051c566c146100a9578063457c8816146100d657806350d6b2ab14610103578063524f38891461014f5780637c05798c146101b857806392cdaaf3146101d857806395a0f9c7146102135780639d1b464a14610240578063b2ad3e091461026b578063d2024b1e146102ba575b600080fd5b3480156100b557600080fd5b506100d4600480360381019080803590602001909291905050506103b6565b005b3480156100e257600080fd5b5061010160048036038101908080359060200190929190505050610b42565b005b610135600480360381019080803590602001909291908035906020019092919080359060200190929190505050610b4e565b604051808215151515815260200191505060405180910390f35b34801561015b57600080fd5b506101b6600480360381019080803590602001908201803590602001908080601f0160208091040260200160405190810160405280939291908181526020018383808284378201915050505050509192919290505050610ef2565b005b6101d66004803603810190808035906020019092919050505061102f565b005b3480156101e457600080fd5b506102116004803603810190808035600019169060200190929190803590602001909291905050506113e9565b005b34801561021f57600080fd5b5061023e600480360381019080803590602001909291905050506113f4565b005b34801561024c57600080fd5b5061025561181f565b6040518082815260200191505060405180910390f35b34801561027757600080fd5b506102b86004803603810190808035600019169060200190929190803590602001909291908035906020019092919080359060200190929190505050611825565b005b3480156102c657600080fd5b506102cf6119d5565b60405180806020018060200180602001848103845287818151815260200191508051906020019060200280838360005b8381101561031a5780820151818401526020810190506102ff565b50505050905001848103835286818151815260200191508051906020019060200280838360005b8381101561035c578082015181840152602081019050610341565b50505050905001848103825285818151815260200191508051906020019060200280838360005b8381101561039e578082015181840152602081019050610383565b50505050905001965050505050505060405180910390f35b6000806000806007600086815260200190815260200160002060010160009054906101000a900473ffffffffffffffffffffffffffffffffffffffff1673ffffffffffffffffffffffffffffffffffffffff163373ffffffffffffffffffffffffffffffffffffffff16148061048d57506007600086815260200190815260200160002060020160009054906101000a900473ffffffffffffffffffffffffffffffffffffffff1673ffffffffffffffffffffffffffffffffffffffff163373ffffffffffffffffffffffffffffffffffffffff16145b151561049857600080fd5b6007600086815260200190815260200160002060020160009054906101000a900473ffffffffffffffffffffffffffffffffffffffff1673ffffffffffffffffffffffffffffffffffffffff166108fc60076000888152602001908152602001600020600601549081150290604051600060405180830381858888f1935050505015801561052a573d6000803e3d6000fd5b50600093506007600086815260200190815260200160002060010160009054906101000a900473ffffffffffffffffffffffffffffffffffffffff1692506007600086815260200190815260200160002060020160009054906101000a900473ffffffffffffffffffffffffffffffffffffffff1691506000600560008573ffffffffffffffffffffffffffffffffffffffff1673ffffffffffffffffffffffffffffffffffffffff168152602001908152602001600020805490501115156105f257600080fd5b600090505b600560008473ffffffffffffffffffffffffffffffffffffffff1673ffffffffffffffffffffffffffffffffffffffff168152602001908152602001600020805490508110156107cb5784600560008573ffffffffffffffffffffffffffffffffffffffff1673ffffffffffffffffffffffffffffffffffffffff1681526020019081526020016000208281548110151561068e57fe5b9060005260206000200154141561070257600560008473ffffffffffffffffffffffffffffffffffffffff1673ffffffffffffffffffffffffffffffffffffffff168152602001908152602001600020818154811015156106eb57fe5b9060005260206000200160009055600193506107be565b83156107bd57600560008473ffffffffffffffffffffffffffffffffffffffff1673ffffffffffffffffffffffffffffffffffffffff1681526020019081526020016000208181548110151561075457fe5b9060005260206000200154600560008573ffffffffffffffffffffffffffffffffffffffff1673ffffffffffffffffffffffffffffffffffffffff168152602001908152602001600020600183038154811015156107ae57fe5b90600052602060002001819055505b5b80806001019150506105f7565b600560008473ffffffffffffffffffffffffffffffffffffffff1673ffffffffffffffffffffffffffffffffffffffff16815260200190815260200160002080548091906001900361081d9190611c70565b50600093506000600660008473ffffffffffffffffffffffffffffffffffffffff1673ffffffffffffffffffffffffffffffffffffffff1681526020019081526020016000208054905011151561087357600080fd5b600090505b600660008373ffffffffffffffffffffffffffffffffffffffff1673ffffffffffffffffffffffffffffffffffffffff16815260200190815260200160002080549050811015610a4c5784600660008473ffffffffffffffffffffffffffffffffffffffff1673ffffffffffffffffffffffffffffffffffffffff1681526020019081526020016000208281548110151561090f57fe5b9060005260206000200154141561098357600660008373ffffffffffffffffffffffffffffffffffffffff1673ffffffffffffffffffffffffffffffffffffffff1681526020019081526020016000208181548110151561096c57fe5b906000526020600020016000905560019350610a3f565b8315610a3e57600660008373ffffffffffffffffffffffffffffffffffffffff1673ffffffffffffffffffffffffffffffffffffffff168152602001908152602001600020818154811015156109d557fe5b9060005260206000200154600660008473ffffffffffffffffffffffffffffffffffffffff1673ffffffffffffffffffffffffffffffffffffffff16815260200190815260200160002060018303815481101515610a2f57fe5b90600052602060002001819055505b5b8080600101915050610878565b600660008373ffffffffffffffffffffffffffffffffffffffff1673ffffffffffffffffffffffffffffffffffffffff168152602001908152602001600020805480919060019003610a9e9190611c70565b50600760008681526020019081526020016000206000808201600090556001820160006101000a81549073ffffffffffffffffffffffffffffffffffffffff02191690556002820160006101000a81549073ffffffffffffffffffffffffffffffffffffffff021916905560038201600090556004820160009055600582016000905560068201600090556007820160009055600882016000905550505050505050565b610b4b816103b6565b50565b6000610b58611c9c565b6000841415610b74578234141515610b6f57600080fd5b610b85565b60006001141515610b8457600080fd5b5b848160000181815250506002600086815260200190815260200160002060000160009054906101000a900473ffffffffffffffffffffffffffffffffffffffff16816020019073ffffffffffffffffffffffffffffffffffffffff16908173ffffffffffffffffffffffffffffffffffffffff168152505033816040019073ffffffffffffffffffffffffffffffffffffffff16908173ffffffffffffffffffffffffffffffffffffffff168152505060026000868152602001908152602001600020600101548160e001906000191690816000191681525050600260008681526020019081526020016000206004015481610100018181525050838160600181815250508281608001818152505060026000868152602001908152602001600020600201548160a001818152505060026000868152602001908152602001600020600301548160c0018181525050600560006002600088815260200190815260200160002060000160009054906101000a900473ffffffffffffffffffffffffffffffffffffffff1673ffffffffffffffffffffffffffffffffffffffff1673ffffffffffffffffffffffffffffffffffffffff1681526020019081526020016000206004549080600181540180825580915050906001820390600052602060002001600090919290919091505550600660003373ffffffffffffffffffffffffffffffffffffffff1673ffffffffffffffffffffffffffffffffffffffff1681526020019081526020016000206004549080600181540180825580915050906001820390600052602060002001600090919290919091505550806007600060045481526020019081526020016000206000820151816000015560208201518160010160006101000a81548173ffffffffffffffffffffffffffffffffffffffff021916908373ffffffffffffffffffffffffffffffffffffffff16021790555060408201518160020160006101000a81548173ffffffffffffffffffffffffffffffffffffffff021916908373ffffffffffffffffffffffffffffffffffffffff160217905550606082015181600301556080820151816004015560a0820151816005015560c0820151816006015560e08201518160070190600019169055610100820151816008015590505060046000815480929190600101919050555060019150509392505050565b60007334263bf3726f1512194c3b0709e1d99472ffa58390508073ffffffffffffffffffffffffffffffffffffffff1663c10a4ffb83306040518363ffffffff167c010000000000000000000000000000000000000000000000000000000002815260040180806020018373ffffffffffffffffffffffffffffffffffffffff1673ffffffffffffffffffffffffffffffffffffffff168152602001828103825284818151815260200191508051906020019080838360005b83811015610fc6578082015181840152602081019050610fab565b50505050905090810190601f168015610ff35780820380516001836020036101000a031916815260200191505b509350505050600060405180830381600087803b15801561101357600080fd5b505af1158015611027573d6000803e3d6000fd5b505050505050565b611037611d18565b60606007600084815260200190815260200160002060010160009054906101000a900473ffffffffffffffffffffffffffffffffffffffff1673ffffffffffffffffffffffffffffffffffffffff163373ffffffffffffffffffffffffffffffffffffffff161415156110a957600080fd5b6110c86007600085815260200190815260200160002060070154611ba4565b90506110d381610ef2565b60076000848152602001908152602001600020600701548260c001906000191690816000191681525050600760008481526020019081526020016000206008015482610100018181525050600c548260e00181815250506007600084815260200190815260200160002060030154826040018181525050600760008481526020019081526020016000206004015482606001818152505060076000848152602001908152602001600020600301548260400181815250506007600084815260200190815260200160002060040154826060018181525050600a60003373ffffffffffffffffffffffffffffffffffffffff1673ffffffffffffffffffffffffffffffffffffffff1681526020019081526020016000206008549080600181540180825580915050906001820390600052602060002001600090919290919091505550600b60006007600086815260200190815260200160002060020160009054906101000a900473ffffffffffffffffffffffffffffffffffffffff1673ffffffffffffffffffffffffffffffffffffffff1673ffffffffffffffffffffffffffffffffffffffff16815260200190815260200160002060085490806001815401808255809150509060018203906000526020600020016000909192909190915055508160096000600854815260200190815260200160002060008201518160000160006101000a81548173ffffffffffffffffffffffffffffffffffffffff021916908373ffffffffffffffffffffffffffffffffffffffff16021790555060208201518160010160006101000a81548173ffffffffffffffffffffffffffffffffffffffff021916908373ffffffffffffffffffffffffffffffffffffffff16021790555060408201518160020155606082015181600301556080820151816004015560a0820151816005015560c0820151816006019060001916905560e0820151816007015561010082015181600801559050506008600081548092919060010191905055506113db60076000858152602001908152602001600020600001546113f4565b6113e4836103b6565b505050565b80600c819055505050565b6000806002600084815260200190815260200160002060000160009054906101000a900473ffffffffffffffffffffffffffffffffffffffff1673ffffffffffffffffffffffffffffffffffffffff163373ffffffffffffffffffffffffffffffffffffffff1614151561146757600080fd5b600091506000600360003373ffffffffffffffffffffffffffffffffffffffff1673ffffffffffffffffffffffffffffffffffffffff168152602001908152602001600020805490501115156114bc57600080fd5b600090505b600360003373ffffffffffffffffffffffffffffffffffffffff1673ffffffffffffffffffffffffffffffffffffffff168152602001908152602001600020805490508110156116955782600360003373ffffffffffffffffffffffffffffffffffffffff1673ffffffffffffffffffffffffffffffffffffffff1681526020019081526020016000208281548110151561155857fe5b906000526020600020015414156115cc57600360003373ffffffffffffffffffffffffffffffffffffffff1673ffffffffffffffffffffffffffffffffffffffff168152602001908152602001600020818154811015156115b557fe5b906000526020600020016000905560019150611688565b811561168757600360003373ffffffffffffffffffffffffffffffffffffffff1673ffffffffffffffffffffffffffffffffffffffff1681526020019081526020016000208181548110151561161e57fe5b9060005260206000200154600360003373ffffffffffffffffffffffffffffffffffffffff1673ffffffffffffffffffffffffffffffffffffffff1681526020019081526020016000206001830381548110151561167857fe5b90600052602060002001819055505b5b80806001019150506114c1565b600360003373ffffffffffffffffffffffffffffffffffffffff1673ffffffffffffffffffffffffffffffffffffffff1681526020019081526020016000208054809190600190036116e79190611c70565b5060009150600060018054905011151561170057600080fd5b600090505b6001805490508110156117a7578260018281548110151561172257fe5b906000526020600020015414156117595760018181548110151561174257fe5b90600052602060002001600090556001915061179a565b81156117995760018181548110151561176e57fe5b9060005260206000200154600180830381548110151561178a57fe5b90600052602060002001819055505b5b8080600101915050611705565b60018054809190600190036117bc9190611c70565b5060026000848152602001908152602001600020600080820160006101000a81549073ffffffffffffffffffffffffffffffffffffffff021916905560018201600090556002820160009055600382016000905560048201600090555050505050565b600c5481565b61182d611d94565b33816000019073ffffffffffffffffffffffffffffffffffffffff16908173ffffffffffffffffffffffffffffffffffffffff16815250508481602001906000191690816000191681525050838160400181815250508281606001818152505081816080018181525050600360003373ffffffffffffffffffffffffffffffffffffffff1673ffffffffffffffffffffffffffffffffffffffff168152602001908152602001600020600054908060018154018082558091505090600182039060005260206000200160009091929091909150555080600260008054815260200190815260200160002060008201518160000160006101000a81548173ffffffffffffffffffffffffffffffffffffffff021916908373ffffffffffffffffffffffffffffffffffffffff160217905550602082015181600101906000191690556040820151816002015560608201518160030155608082015181600401559050506001600054908060018154018082558091505090600182039060005260206000200160009091929091909150555060008081548092919060010191905055505050505050565b6060806060806060806000600180549050604051908082528060200260200182016040528015611a145781602001602082028038833980820191505090505b509350600180549050604051908082528060200260200182016040528015611a4b5781602001602082028038833980820191505090505b509250600180549050604051908082528060200260200182016040528015611a825781602001602082028038833980820191505090505b509150600090505b600180549050811015611b925760026000600183815481101515611aaa57fe5b90600052602060002001548152602001908152602001600020600101548482815181101515611ad557fe5b90602001906020020190600019169081600019168152505060026000600183815481101515611b0057fe5b90600052602060002001548152602001908152602001600020600301548382815181101515611b2b57fe5b906020019060200201818152505060026000600183815481101515611b4c57fe5b90600052602060002001548152602001908152602001600020600401548282815181101515611b7757fe5b90602001906020020181815250508080600101915050611a8a565b83838396509650965050505050909192565b606080600060206040519080825280601f01601f191660200182016040528015611bdd5781602001602082028038833980820191505090505b5091505b6020811015611c66578381602081101515611bf857fe5b1a7f0100000000000000000000000000000000000000000000000000000000000000028282815181101515611c2957fe5b9060200101907effffffffffffffffffffffffffffffffffffffffffffffffffffffffffffff1916908160001a9053508080600101915050611be1565b8192505050919050565b815481835581811115611c9757818360005260206000209182019101611c969190611ddd565b5b505050565b6101206040519081016040528060008152602001600073ffffffffffffffffffffffffffffffffffffffff168152602001600073ffffffffffffffffffffffffffffffffffffffff1681526020016000815260200160008152602001600081526020016000815260200160008019168152602001600081525090565b61012060405190810160405280600073ffffffffffffffffffffffffffffffffffffffff168152602001600073ffffffffffffffffffffffffffffffffffffffff168152602001600081526020016000815260200160008152602001600081526020016000801916815260200160008152602001600081525090565b60a060405190810160405280600073ffffffffffffffffffffffffffffffffffffffff168152602001600080191681526020016000815260200160008152602001600081525090565b611dff91905b80821115611dfb576000816000905550600101611de3565b5090565b905600a165627a7a72305820d464a96a7def1d64969034eba131b2d370f0ed442ec1f67513b50bb37308b0c70029",
  "source": "pragma solidity ^0.4.24;\n\n//import \"requestStockPrices.sol\";\n\ncontract RopstenConsumer2 {\n    function requestEthereumPrice(string _currency, address _addr);\n}\n\n\ncontract syntheticStocks {\n\n  struct offer {\n    address client;\n    bytes32 stock;\n    uint256 collateralType;\n    uint256 collateralAmount;\n    uint256 endBlock;\n  }\n\n  struct agreement {\n    address client;\n    address provider;\n\n    uint256 providerCollateralType;\n    uint256 providerCollateralAmount;\n\n    uint256 ClientCollateralType;\n    uint256 ClientCollateralAmount;\n\n    bytes32 stock;\n    uint256 startPrice;\n\n    uint256 endBlock;\n  }\n\n  struct tempAgreement {\n    uint256 offerIndex;\n    address client;\n    address provider;\n\n    uint256 providerCollateralType;\n    uint256 providerCollateralAmount;\n\n    uint256 clientCollateralType;\n    uint256 clientCollateralAmount;\n\n    bytes32 stock;\n\n    uint256 endBlock;\n  }\n\n\n  uint256 currentOfferIndex;\n  uint256[]  _openOfferIndices;\n  mapping (uint256 => offer) private _allOffers;\n  mapping (address => uint256[]) private _clientOffers;\n\n  uint256 currentTempAgrIndex;\n  mapping (address => uint256[]) private _tempAgreements_clients;\n  mapping (address => uint256[]) private _tempAgreements_providers;\n  mapping (uint256 => tempAgreement) private _allTempAgreements;\n\n  uint256 currentAgrIndex;\n  mapping (uint256 => agreement) _allAgreements;\n  mapping (address => uint256[]) _agreements_clients;\n  mapping (address => uint256[]) _agreements_providers;\n\n  constructor() public {\n    currentOfferIndex   = 0;\n    currentAgrIndex     = 0;\n    currentTempAgrIndex = 0;\n  }\n\n  uint256 public currentPrice;\n  function bytes32ToStr(bytes32 _bytes32) internal constant returns (string){\n\n    // string memory str = string(_bytes32);\n    // TypeError: Explicit type conversion not allowed from \"bytes32\" to \"string storage pointer\"\n    // thus we should fist convert bytes32 to bytes (to dynamically-sized byte array)\n\n    bytes memory bytesArray = new bytes(32);\n    for (uint256 i; i < 32; i++) {\n        bytesArray[i] = _bytes32[i];\n        }\n    return string(bytesArray);\n    }\n\n  function getPrice (string _ticker) {\n      // call address-> requestEthereumPrice(_ticker, this)\n      // -\n      // address watch_addr;\n      // watch_addr = 0x34263bf3726f1512194c3b0709e1d99472ffa583;\n\n      RopstenConsumer2 r = RopstenConsumer2(0x34263bf3726f1512194c3b0709e1d99472ffa583);\n      r.requestEthereumPrice(_ticker, this);\n      // watch_addr.call(bytes4(sha3(\"requestEthereumPrice(string, address)\")), _ticker, this);\n  }\n\n  function fulfillEthereumPrice(bytes32 _requestId, uint256 _price)\n    public\n  {\n    currentPrice = _price;\n  }\n\n  /*\n     Client creates a new offer to buy a stock.\n     */\n  function newOffer(\n      bytes32 stock,\n      uint256 collateralType,\n      uint256 collateralAmount,\n      uint256 endBlock) public {\n\n    offer memory ofr;\n    ofr.client            = msg.sender;\n    ofr.stock             = stock;\n    ofr.collateralType    = collateralType;\n    ofr.collateralAmount  = collateralAmount;\n    ofr.endBlock          = endBlock;\n\n    _clientOffers[msg.sender].push(currentOfferIndex);\n    //_offerByStock[stock].push(currentOfferIndex);\n    _allOffers[currentOfferIndex] = ofr;\n    _openOfferIndices.push(currentOfferIndex);\n    currentOfferIndex++;\n  }\n\n  /*\n     Get available offers.\n     */\n  function getOpenOffers() public view returns (\n      bytes32[], \n      //bytes32[], \n      uint256[], \n      uint256[]) {\n\n    bytes32[] memory stocks  = new bytes32[](_openOfferIndices.length);\n    //bytes32[] memory clients = new bytes32[](_openOfferIndices.length);\n    uint256[] memory collateral = new uint256[](_openOfferIndices.length);\n    uint256[] memory endBlock   = new uint256[](_openOfferIndices.length);\n\n    for (uint i=0; i<_openOfferIndices.length; i++) {\n      stocks[i]  = _allOffers[_openOfferIndices[i]].stock;\n      //clients[i] = _allOffers[_openOfferIndices[i]].client;\n      collateral[i] = _allOffers[_openOfferIndices[i]].collateralAmount;\n      endBlock[i]   = _allOffers[_openOfferIndices[i]].endBlock;\n    }\n\n    //return (stocks, clients, collateral, endBlock);\n    return (stocks, collateral, endBlock);\n  }\n\n  /*\n     Client can remove the offer.\n     */\n  function removeOffer(uint256 index) public {\n    require (msg.sender == _allOffers[index].client);\n\n    bool removed = false;\n    require(_clientOffers[msg.sender].length > 0);\n    for (uint i=0; i<_clientOffers[msg.sender].length; i++) {\n      if (_clientOffers[msg.sender][i] == index) {\n        delete _clientOffers[msg.sender][i];\n        removed = true;\n      }\n      else if (removed) {\n        _clientOffers[msg.sender][i-1] \n            = _clientOffers[msg.sender][i];\n      }\n    }\n    _clientOffers[msg.sender].length--;\n \n    removed = false;\n    require(_openOfferIndices.length > 0);\n    for (i=0; i<_openOfferIndices.length; i++) {\n      if (_openOfferIndices[i] == index) {\n        delete _openOfferIndices[i];\n        removed = true;\n      }\n      else if (removed) {\n        _openOfferIndices[i-1] \n            = _openOfferIndices[i];\n      }\n    }\n    _openOfferIndices.length--;\n \n    delete _allOffers[index];\n  }\n\n\n  /*\n     Function called by provider to offer an agreement\n     to the client.\n     */\n  function newAgreement (\n      uint256 index,\n      uint256 collateralType,\n      uint256 collateralAmount) public payable returns(bool succuss) {\n\n    if (collateralType == 0) {\n      require(msg.value == collateralAmount);\n    }\n    else {\n      require(1 == 0);\n    }\n\n    tempAgreement memory agr;\n    agr.offerIndex  = index;\n    agr.client      = _allOffers[index].client;\n    agr.provider    = msg.sender;\n    agr.stock       = _allOffers[index].stock;\n    agr.endBlock    = _allOffers[index].endBlock;\n\n    agr.providerCollateralType    = collateralType;\n    agr.providerCollateralAmount  = collateralAmount;\n    agr.clientCollateralType    = _allOffers[index].collateralType;\n    agr.clientCollateralAmount  = _allOffers[index].collateralAmount;\n\n    _tempAgreements_clients[_allOffers[index].client].push(currentTempAgrIndex);\n    _tempAgreements_providers[msg.sender].push(currentTempAgrIndex);\n\n    _allTempAgreements[currentTempAgrIndex] = agr;\n    currentTempAgrIndex++;\n\n    return true;\n  }\n\n\n  /*\n     Client rejects agreement from provider.\n     */\n  function rejectAgreement(uint256 index) public {\n    removeTempAgreement(index);\n  }\n\n\n  /*\n     Client accepts agreement from provider.\n     */\n  function confirmAgreement(uint256 index) public payable {\n    require(msg.sender == _allTempAgreements[index].client);\n\n    agreement memory agr;\n\n    //bytes32 memory btsStock = _allTempAgreements[index].stock;\n    string memory strStock = bytes32ToStr(_allTempAgreements[index].stock); //string(btsStock);\n    getPrice(strStock); \n\n    agr.stock       = _allTempAgreements[index].stock;\n    agr.endBlock    = _allTempAgreements[index].endBlock;\n    agr.startPrice  = currentPrice; //TODO: GET PRICE\n    agr.providerCollateralType     =  _allTempAgreements[index].providerCollateralType;\n    agr.providerCollateralAmount   =  _allTempAgreements[index].providerCollateralAmount;\n    agr.providerCollateralType   =  _allTempAgreements[index].providerCollateralType;\n    agr.providerCollateralAmount =  _allTempAgreements[index].providerCollateralAmount;\n\n    _agreements_clients[msg.sender].push(currentAgrIndex);\n    _agreements_providers[_allTempAgreements[index].provider].push(currentAgrIndex);\n\n    _allAgreements[currentAgrIndex] = agr;\n    currentAgrIndex++;\n\n    removeOffer(_allTempAgreements[index].offerIndex);\n    removeTempAgreement(index);\n  }\n\n\n  /*\n     Remove temporary agreement either buy revoking or rejecting it.\n     */\n  function removeTempAgreement(uint256 index) public {\n\n    require((msg.sender == _allTempAgreements[index].client)\n        || (msg.sender == _allTempAgreements[index].provider));\n\n    // Return providers collateral\n    _allTempAgreements[index].provider.transfer(\n        _allTempAgreements[index].clientCollateralAmount);\n\n    // Remove indices\n    bool removed      = false;\n    address client    = _allTempAgreements[index].client;\n    address provider  = _allTempAgreements[index].provider;\n\n    require(_tempAgreements_clients[client].length > 0);\n    for (uint i=0; i<_tempAgreements_clients[client].length; i++) {\n      if (_tempAgreements_clients[client][i] == index) {\n        delete _tempAgreements_clients[client][i];\n        removed = true;\n      }\n      else if (removed) {\n        _tempAgreements_clients[client][i-1] \n            = _tempAgreements_clients[client][i];\n      }\n    }\n    _tempAgreements_clients[client].length--;\n    \n    removed = false;\n    require(_tempAgreements_providers[provider].length > 0);\n    for (i=0; i<_tempAgreements_providers[provider].length; i++) {\n      if (_tempAgreements_providers[provider][i] == index) {\n        delete _tempAgreements_providers[provider][i];\n        removed = true;\n      }\n      else if (removed) {\n        _tempAgreements_providers[provider][i-1] \n            = _tempAgreements_providers[provider][i];\n      }\n    }\n    _tempAgreements_providers[provider].length--;\n\n    delete _allTempAgreements[index];\n  }\n\n}\n",
  "sourcePath": "/Users/praty/temp/ETHSF2018/contracts/syntheticStocks.sol",
  "compiler": {
    "name": "solc",
    "version": "0.4.24+commit.e67f0147.Emscripten.clang"
  },
  "schemaVersion": "2.0.1",
  "updatedAt": "2018-10-07T13:30:15.639Z"
}